{
  "contractName": "BoerstToken",
  "abi": [
    {
      "constant": true,
      "inputs": [],
      "name": "totalSupply",
      "outputs": [
        {
          "name": "",
          "type": "uint256"
        }
      ],
      "payable": false,
      "stateMutability": "view",
      "type": "function",
      "signature": "0x18160ddd"
    },
    {
      "inputs": [],
      "payable": false,
      "stateMutability": "nonpayable",
      "type": "constructor",
      "signature": "constructor"
    }
  ],
  "bytecode": "0x608060405234801561001057600080fd5b50620f4240600081905550609e806100296000396000f3fe608060405260043610603f576000357c0100000000000000000000000000000000000000000000000000000000900463ffffffff16806318160ddd146044575b600080fd5b348015604f57600080fd5b506056606c565b6040518082815260200191505060405180910390f35b6000548156fea165627a7a723058204c70087ffc2601f8ba2e53ed3dc508ccd788c57398d7b0542a115580aec9ce150029",
  "source": "pragma solidity ^0.5.0;\n\ncontract BoerstToken {\n    uint256 public totalSupply;\n\n    // Constructor\n    constructor () public {\n        totalSupply = 1000000;\n    }\n\n    // Set total number of tokens\n    // Read total number of tokens\n}",
  "sourcePath": "/Users/brian/Documents/repo/boerst-token-sale/contracts/BoerstToken.sol",
  "compiler": {
    "name": "solc",
    "version": "0.5.0+commit.1d4f565a.Emscripten.clang"
  },
  "schemaVersion": "3.0.2",
  "updatedAt": "2019-03-11T03:06:55.156Z",
  "devdoc": {
    "methods": {}
  },
  "userdoc": {
    "methods": {}
  }
}